{
  "contractName": "BookToken",
  "abi": [
    {
      "inputs": [],
      "stateMutability": "nonpayable",
      "type": "constructor"
    },
    {
      "anonymous": false,
      "inputs": [
        {
          "indexed": true,
          "internalType": "address",
          "name": "owner",
          "type": "address"
        },
        {
          "indexed": true,
          "internalType": "address",
          "name": "approved",
          "type": "address"
        },
        {
          "indexed": true,
          "internalType": "uint256",
          "name": "tokenId",
          "type": "uint256"
        }
      ],
      "name": "Approval",
      "type": "event"
    },
    {
      "anonymous": false,
      "inputs": [
        {
          "indexed": true,
          "internalType": "address",
          "name": "owner",
          "type": "address"
        },
        {
          "indexed": true,
          "internalType": "address",
          "name": "operator",
          "type": "address"
        },
        {
          "indexed": false,
          "internalType": "bool",
          "name": "approved",
          "type": "bool"
        }
      ],
      "name": "ApprovalForAll",
      "type": "event"
    },
    {
      "anonymous": false,
      "inputs": [
        {
          "indexed": false,
          "internalType": "uint256",
          "name": "_tokenId",
          "type": "uint256"
        },
        {
          "indexed": false,
          "internalType": "uint256",
          "name": "_status",
          "type": "uint256"
        },
        {
          "indexed": false,
          "internalType": "uint256",
          "name": "_price",
          "type": "uint256"
        }
      ],
      "name": "LogBookPutUpForSale",
      "type": "event"
    },
    {
      "anonymous": false,
      "inputs": [
        {
          "indexed": false,
          "internalType": "uint256",
          "name": "_tokenId",
          "type": "uint256"
        },
        {
          "indexed": false,
          "internalType": "string",
          "name": "_title",
          "type": "string"
        },
        {
          "indexed": false,
          "internalType": "string",
          "name": "_authorName",
          "type": "string"
        },
        {
          "indexed": false,
          "internalType": "uint256",
          "name": "_price",
          "type": "uint256"
        },
        {
          "indexed": false,
          "internalType": "address",
          "name": "_current_owner",
          "type": "address"
        },
        {
          "indexed": false,
          "internalType": "address",
          "name": "_buyer",
          "type": "address"
        }
      ],
      "name": "LogBookSold",
      "type": "event"
    },
    {
      "anonymous": false,
      "inputs": [
        {
          "indexed": false,
          "internalType": "uint256",
          "name": "_tokenId",
          "type": "uint256"
        },
        {
          "indexed": false,
          "internalType": "string",
          "name": "_title",
          "type": "string"
        },
        {
          "indexed": false,
          "internalType": "string",
          "name": "_authorName",
          "type": "string"
        },
        {
          "indexed": false,
          "internalType": "uint256",
          "name": "price",
          "type": "uint256"
        },
        {
          "indexed": false,
          "internalType": "address",
          "name": "_owner",
          "type": "address"
        }
      ],
      "name": "LogBookTokenCreate",
      "type": "event"
    },
    {
      "anonymous": false,
      "inputs": [
        {
          "indexed": true,
          "internalType": "address",
          "name": "from",
          "type": "address"
        },
        {
          "indexed": true,
          "internalType": "address",
          "name": "to",
          "type": "address"
        },
        {
          "indexed": true,
          "internalType": "uint256",
          "name": "tokenId",
          "type": "uint256"
        }
      ],
      "name": "Transfer",
      "type": "event"
    },
    {
      "inputs": [
        {
          "internalType": "uint256",
          "name": "",
          "type": "uint256"
        }
      ],
      "name": "allTokens",
      "outputs": [
        {
          "internalType": "uint256",
          "name": "",
          "type": "uint256"
        }
      ],
      "stateMutability": "view",
      "type": "function",
      "constant": true
    },
    {
      "inputs": [
        {
          "internalType": "address",
          "name": "to",
          "type": "address"
        },
        {
          "internalType": "uint256",
          "name": "tokenId",
          "type": "uint256"
        }
      ],
      "name": "approve",
      "outputs": [],
      "stateMutability": "nonpayable",
      "type": "function"
    },
    {
      "inputs": [
        {
          "internalType": "address",
          "name": "owner",
          "type": "address"
        }
      ],
      "name": "balanceOf",
      "outputs": [
        {
          "internalType": "uint256",
          "name": "",
          "type": "uint256"
        }
      ],
      "stateMutability": "view",
      "type": "function",
      "constant": true
    },
    {
      "inputs": [
        {
          "internalType": "uint256",
          "name": "",
          "type": "uint256"
        }
      ],
      "name": "booksForSale",
      "outputs": [
        {
          "internalType": "uint256",
          "name": "",
          "type": "uint256"
        }
      ],
      "stateMutability": "view",
      "type": "function",
      "constant": true
    },
    {
      "inputs": [
        {
          "internalType": "uint256",
          "name": "tokenId",
          "type": "uint256"
        }
      ],
      "name": "getApproved",
      "outputs": [
        {
          "internalType": "address",
          "name": "",
          "type": "address"
        }
      ],
      "stateMutability": "view",
      "type": "function",
      "constant": true
    },
    {
      "inputs": [
        {
          "internalType": "address",
          "name": "owner",
          "type": "address"
        },
        {
          "internalType": "address",
          "name": "operator",
          "type": "address"
        }
      ],
      "name": "isApprovedForAll",
      "outputs": [
        {
          "internalType": "bool",
          "name": "",
          "type": "bool"
        }
      ],
      "stateMutability": "view",
      "type": "function",
      "constant": true
    },
    {
      "inputs": [],
      "name": "name",
      "outputs": [
        {
          "internalType": "string",
          "name": "",
          "type": "string"
        }
      ],
      "stateMutability": "view",
      "type": "function",
      "constant": true
    },
    {
      "inputs": [
        {
          "internalType": "uint256",
          "name": "tokenId",
          "type": "uint256"
        }
      ],
      "name": "ownerOf",
      "outputs": [
        {
          "internalType": "address",
          "name": "",
          "type": "address"
        }
      ],
      "stateMutability": "view",
      "type": "function",
      "constant": true
    },
    {
      "inputs": [
        {
          "internalType": "address",
          "name": "from",
          "type": "address"
        },
        {
          "internalType": "address",
          "name": "to",
          "type": "address"
        },
        {
          "internalType": "uint256",
          "name": "tokenId",
          "type": "uint256"
        }
      ],
      "name": "safeTransferFrom",
      "outputs": [],
      "stateMutability": "nonpayable",
      "type": "function"
    },
    {
      "inputs": [
        {
          "internalType": "address",
          "name": "from",
          "type": "address"
        },
        {
          "internalType": "address",
          "name": "to",
          "type": "address"
        },
        {
          "internalType": "uint256",
          "name": "tokenId",
          "type": "uint256"
        },
        {
          "internalType": "bytes",
          "name": "data",
          "type": "bytes"
        }
      ],
      "name": "safeTransferFrom",
      "outputs": [],
      "stateMutability": "nonpayable",
      "type": "function"
    },
    {
      "inputs": [
        {
          "internalType": "address",
          "name": "operator",
          "type": "address"
        },
        {
          "internalType": "bool",
          "name": "approved",
          "type": "bool"
        }
      ],
      "name": "setApprovalForAll",
      "outputs": [],
      "stateMutability": "nonpayable",
      "type": "function"
    },
    {
      "inputs": [
        {
          "internalType": "bytes4",
          "name": "interfaceId",
          "type": "bytes4"
        }
      ],
      "name": "supportsInterface",
      "outputs": [
        {
          "internalType": "bool",
          "name": "",
          "type": "bool"
        }
      ],
      "stateMutability": "view",
      "type": "function",
      "constant": true
    },
    {
      "inputs": [],
      "name": "symbol",
      "outputs": [
        {
          "internalType": "string",
          "name": "",
          "type": "string"
        }
      ],
      "stateMutability": "view",
      "type": "function",
      "constant": true
    },
    {
      "inputs": [
        {
          "internalType": "uint256",
          "name": "",
          "type": "uint256"
        }
      ],
      "name": "tokenIdToBookInfo",
      "outputs": [
        {
          "internalType": "string",
          "name": "title",
          "type": "string"
        },
        {
          "internalType": "string",
          "name": "description",
          "type": "string"
        },
        {
          "internalType": "string",
          "name": "authorName",
          "type": "string"
        },
        {
          "internalType": "address",
          "name": "owner",
          "type": "address"
        },
        {
          "internalType": "uint256",
          "name": "status",
          "type": "uint256"
        },
        {
          "internalType": "uint256",
          "name": "price",
          "type": "uint256"
        }
      ],
      "stateMutability": "view",
      "type": "function",
      "constant": true
    },
    {
      "inputs": [
        {
          "internalType": "uint256",
          "name": "tokenId",
          "type": "uint256"
        }
      ],
      "name": "tokenURI",
      "outputs": [
        {
          "internalType": "string",
          "name": "",
          "type": "string"
        }
      ],
      "stateMutability": "view",
      "type": "function",
      "constant": true
    },
    {
      "inputs": [
        {
          "internalType": "address",
          "name": "from",
          "type": "address"
        },
        {
          "internalType": "address",
          "name": "to",
          "type": "address"
        },
        {
          "internalType": "uint256",
          "name": "tokenId",
          "type": "uint256"
        }
      ],
      "name": "transferFrom",
      "outputs": [],
      "stateMutability": "nonpayable",
      "type": "function"
    },
    {
      "inputs": [
        {
          "internalType": "uint256",
          "name": "_tokenId",
          "type": "uint256"
        },
        {
          "internalType": "string",
          "name": "_title",
          "type": "string"
        },
        {
          "internalType": "string",
          "name": "_description",
          "type": "string"
        },
        {
          "internalType": "string",
          "name": "_authorName",
          "type": "string"
        },
        {
          "internalType": "uint256",
          "name": "_price",
          "type": "uint256"
        }
      ],
      "name": "createBookToken",
      "outputs": [],
      "stateMutability": "nonpayable",
      "type": "function"
    },
    {
      "inputs": [
        {
          "internalType": "uint256",
          "name": "_tokenId",
          "type": "uint256"
        }
      ],
      "name": "lookUpForBook",
      "outputs": [
        {
          "internalType": "string",
          "name": "",
          "type": "string"
        },
        {
          "internalType": "string",
          "name": "",
          "type": "string"
        },
        {
          "internalType": "string",
          "name": "",
          "type": "string"
        },
        {
          "internalType": "uint256",
          "name": "status",
          "type": "uint256"
        },
        {
          "internalType": "address",
          "name": "",
          "type": "address"
        },
        {
          "internalType": "uint256",
          "name": "",
          "type": "uint256"
        }
      ],
      "stateMutability": "view",
      "type": "function",
      "constant": true
    },
    {
      "inputs": [
        {
          "internalType": "uint256",
          "name": "_tokenId",
          "type": "uint256"
        },
        {
          "internalType": "uint256",
          "name": "_price",
          "type": "uint256"
        }
      ],
      "name": "putBookUpForSale",
      "outputs": [],
      "stateMutability": "nonpayable",
      "type": "function"
    },
    {
      "inputs": [
        {
          "internalType": "uint256",
          "name": "_tokenId",
          "type": "uint256"
        }
      ],
      "name": "buyBook",
      "outputs": [],
      "stateMutability": "payable",
      "type": "function",
      "payable": true
    },
    {
      "inputs": [
        {
          "internalType": "uint256",
          "name": "_firstBookTokenId",
          "type": "uint256"
        },
        {
          "internalType": "uint256",
          "name": "_secondBookTokenId",
          "type": "uint256"
        }
      ],
      "name": "exchangeBooks",
      "outputs": [],
      "stateMutability": "payable",
      "type": "function",
      "payable": true
    },
    {
      "inputs": [
        {
          "internalType": "address",
          "name": "to",
          "type": "address"
        },
        {
          "internalType": "uint256",
          "name": "_tokenId",
          "type": "uint256"
        }
      ],
      "name": "transferBook",
      "outputs": [],
      "stateMutability": "payable",
      "type": "function",
      "payable": true
    },
    {
      "inputs": [],
      "name": "getAllWithStatusAvailableForSale",
      "outputs": [
        {
          "components": [
            {
              "internalType": "string",
              "name": "title",
              "type": "string"
            },
            {
              "internalType": "string",
              "name": "description",
              "type": "string"
            },
            {
              "internalType": "string",
              "name": "authorName",
              "type": "string"
            },
            {
              "internalType": "address",
              "name": "owner",
              "type": "address"
            },
            {
              "internalType": "uint256",
              "name": "status",
              "type": "uint256"
            },
            {
              "internalType": "uint256",
              "name": "price",
              "type": "uint256"
            }
          ],
          "internalType": "struct BookToken.Book[]",
          "name": "",
          "type": "tuple[]"
        }
      ],
      "stateMutability": "view",
      "type": "function",
      "constant": true
    },
    {
      "inputs": [],
      "name": "getAll",
      "outputs": [
        {
          "components": [
            {
              "internalType": "string",
              "name": "title",
              "type": "string"
            },
            {
              "internalType": "string",
              "name": "description",
              "type": "string"
            },
            {
              "internalType": "string",
              "name": "authorName",
              "type": "string"
            },
            {
              "internalType": "address",
              "name": "owner",
              "type": "address"
            },
            {
              "internalType": "uint256",
              "name": "status",
              "type": "uint256"
            },
            {
              "internalType": "uint256",
              "name": "price",
              "type": "uint256"
            }
          ],
          "internalType": "struct BookToken.Book[]",
          "name": "",
          "type": "tuple[]"
        }
      ],
      "stateMutability": "view",
      "type": "function",
      "constant": true
    }
  ],
  "bytecode": "0x60806040523480156200001157600080fd5b506040518060400160405280600981526020017f426f6f6b546f6b656e00000000000000000000000000000000000000000000008152506040518060400160405280600281526020017f424b00000000000000000000000000000000000000000000000000000000000081525081600090816200008f919062000324565b508060019081620000a1919062000324565b5050506200040b565b600081519050919050565b7f4e487b7100000000000000000000000000000000000000000000000000000000600052604160045260246000fd5b7f4e487b7100000000000000000000000000000000000000000000000000000000600052602260045260246000fd5b600060028204905060018216806200012c57607f821691505b602082108103620001425762000141620000e4565b5b50919050565b60008190508160005260206000209050919050565b60006020601f8301049050919050565b600082821b905092915050565b600060088302620001ac7fffffffffffffffffffffffffffffffffffffffffffffffffffffffffffffffff826200016d565b620001b886836200016d565b95508019841693508086168417925050509392505050565b6000819050919050565b6000819050919050565b600062000205620001ff620001f984620001d0565b620001da565b620001d0565b9050919050565b6000819050919050565b6200022183620001e4565b6200023962000230826200020c565b8484546200017a565b825550505050565b600090565b6200025062000241565b6200025d81848462000216565b505050565b5b8181101562000285576200027960008262000246565b60018101905062000263565b5050565b601f821115620002d4576200029e8162000148565b620002a9846200015d565b81016020851015620002b9578190505b620002d1620002c8856200015d565b83018262000262565b50505b505050565b600082821c905092915050565b6000620002f960001984600802620002d9565b1980831691505092915050565b6000620003148383620002e6565b9150826002028217905092915050565b6200032f82620000aa565b67ffffffffffffffff8111156200034b576200034a620000b5565b5b62000357825462000113565b6200036482828562000289565b600060209050601f8311600181146200039c576000841562000387578287015190505b62000393858262000306565b86555062000403565b601f198416620003ac8662000148565b60005b82811015620003d657848901518255600182019150602085019450602081019050620003af565b86831015620003f65784890151620003f2601f891682620002e6565b8355505b6001600288020188555050505b505050505050565b61492f806200041b6000396000f3fe60806040526004361061014b5760003560e01c806367c819a8116100b657806395d89b411161006f57806395d89b41146104a2578063a22cb465146104cd578063b88d4fde146104f6578063c87b56dd1461051f578063e985e9c51461055c578063faa0a846146105995761014b565b806367c819a8146103855780636ee26566146103ae57806370a08231146103ca57806376408a4f1461040757806378c76ab2146104495780637ab413cf146104865761014b565b806342842e0e1161010857806342842e0e146102635780634c4283f31461028c5780634f944147146102b757806353ed5143146102e0578063634282af1461030b5780636352211e146103485761014b565b806301ffc9a71461015057806306fdde031461018d578063081812fc146101b857806308d3c1f4146101f5578063095ea7b31461021157806323b872dd1461023a575b600080fd5b34801561015c57600080fd5b5061017760048036038101906101729190613030565b6105db565b6040516101849190613078565b60405180910390f35b34801561019957600080fd5b506101a26106bd565b6040516101af9190613123565b60405180910390f35b3480156101c457600080fd5b506101df60048036038101906101da919061317b565b61074f565b6040516101ec91906131e9565b60405180910390f35b61020f600480360381019061020a9190613204565b610795565b005b34801561021d57600080fd5b5061023860048036038101906102339190613270565b610849565b005b34801561024657600080fd5b50610261600480360381019061025c91906132b0565b610960565b005b34801561026f57600080fd5b5061028a600480360381019061028591906132b0565b6109c0565b005b34801561029857600080fd5b506102a16109e0565b6040516102ae91906134c4565b60405180910390f35b3480156102c357600080fd5b506102de60048036038101906102d99190613204565b610e31565b005b3480156102ec57600080fd5b506102f5610fdb565b60405161030291906134c4565b60405180910390f35b34801561031757600080fd5b50610332600480360381019061032d919061317b565b6112df565b60405161033f91906134f5565b60405180910390f35b34801561035457600080fd5b5061036f600480360381019061036a919061317b565b611303565b60405161037c91906131e9565b60405180910390f35b34801561039157600080fd5b506103ac60048036038101906103a79190613645565b611389565b005b6103c860048036038101906103c3919061317b565b6115a4565b005b3480156103d657600080fd5b506103f160048036038101906103ec9190613714565b6118d3565b6040516103fe91906134f5565b60405180910390f35b34801561041357600080fd5b5061042e6004803603810190610429919061317b565b61198a565b60405161044096959493929190613741565b60405180910390f35b34801561045557600080fd5b50610470600480360381019061046b919061317b565b611b7e565b60405161047d91906134f5565b60405180910390f35b6104a0600480360381019061049b9190613270565b611b96565b005b3480156104ae57600080fd5b506104b7611be5565b6040516104c49190613123565b60405180910390f35b3480156104d957600080fd5b506104f460048036038101906104ef91906137e3565b611c77565b005b34801561050257600080fd5b5061051d600480360381019061051891906138c4565b611c8d565b005b34801561052b57600080fd5b506105466004803603810190610541919061317b565b611cef565b6040516105539190613123565b60405180910390f35b34801561056857600080fd5b50610583600480360381019061057e9190613947565b611d57565b6040516105909190613078565b60405180910390f35b3480156105a557600080fd5b506105c060048036038101906105bb919061317b565b611deb565b6040516105d296959493929190613987565b60405180910390f35b60007f80ac58cd000000000000000000000000000000000000000000000000000000007bffffffffffffffffffffffffffffffffffffffffffffffffffffffff1916827bffffffffffffffffffffffffffffffffffffffffffffffffffffffff191614806106a657507f5b5e139f000000000000000000000000000000000000000000000000000000007bffffffffffffffffffffffffffffffffffffffffffffffffffffffff1916827bffffffffffffffffffffffffffffffffffffffffffffffffffffffff1916145b806106b657506106b5826120f9565b5b9050919050565b6060600080546106cc90613a2c565b80601f01602080910402602001604051908101604052809291908181526020018280546106f890613a2c565b80156107455780601f1061071a57610100808354040283529160200191610745565b820191906000526020600020905b81548152906001019060200180831161072857829003601f168201915b5050505050905090565b600061075a82612163565b6004600083815260200190815260200160002060009054906101000a900473ffffffffffffffffffffffffffffffffffffffff169050919050565b3373ffffffffffffffffffffffffffffffffffffffff166107b583611303565b73ffffffffffffffffffffffffffffffffffffffff16148061080a57503373ffffffffffffffffffffffffffffffffffffffff166107f282611303565b73ffffffffffffffffffffffffffffffffffffffff16145b61081357600080fd5b600061081e83611303565b9050600061082b83611303565b90506108388282866121ae565b6108438183856121ae565b50505050565b600061085482611303565b90508073ffffffffffffffffffffffffffffffffffffffff168373ffffffffffffffffffffffffffffffffffffffff16036108c4576040517f08c379a00000000000000000000000000000000000000000000000000000000081526004016108bb90613acf565b60405180910390fd5b8073ffffffffffffffffffffffffffffffffffffffff166108e36124a7565b73ffffffffffffffffffffffffffffffffffffffff16148061091257506109118161090c6124a7565b611d57565b5b610951576040517f08c379a000000000000000000000000000000000000000000000000000000000815260040161094890613b61565b60405180910390fd5b61095b83836124af565b505050565b61097161096b6124a7565b82612568565b6109b0576040517f08c379a00000000000000000000000000000000000000000000000000000000081526004016109a790613bf3565b60405180910390fd5b6109bb8383836121ae565b505050565b6109db83838360405180602001604052806000815250611c8d565b505050565b60606000805b600880549050811015610ab05760016006600060088481548110610a0d57610a0c613c13565b5b9060005260206000200154815260200190815260200160002060040154148015610a8957503373ffffffffffffffffffffffffffffffffffffffff16610a7060088381548110610a6057610a5f613c13565b5b9060005260206000200154611303565b73ffffffffffffffffffffffffffffffffffffffff1614155b15610a9d578180610a9990613c71565b9250505b8080610aa890613c71565b9150506109e6565b5060008167ffffffffffffffff811115610acd57610acc61351a565b5b604051908082528060200260200182016040528015610b0657816020015b610af3612f78565b815260200190600190039081610aeb5790505b5090506000805b600880549050811015610e275760006006600060088481548110610b3457610b33613c13565b5b906000526020600020015481526020019081526020016000206040518060c0016040529081600082018054610b6890613a2c565b80601f0160208091040260200160405190810160405280929190818152602001828054610b9490613a2c565b8015610be15780601f10610bb657610100808354040283529160200191610be1565b820191906000526020600020905b815481529060010190602001808311610bc457829003601f168201915b50505050508152602001600182018054610bfa90613a2c565b80601f0160208091040260200160405190810160405280929190818152602001828054610c2690613a2c565b8015610c735780601f10610c4857610100808354040283529160200191610c73565b820191906000526020600020905b815481529060010190602001808311610c5657829003601f168201915b50505050508152602001600282018054610c8c90613a2c565b80601f0160208091040260200160405190810160405280929190818152602001828054610cb890613a2c565b8015610d055780601f10610cda57610100808354040283529160200191610d05565b820191906000526020600020905b815481529060010190602001808311610ce857829003601f168201915b505050505081526020016003820160009054906101000a900473ffffffffffffffffffffffffffffffffffffffff1673ffffffffffffffffffffffffffffffffffffffff1673ffffffffffffffffffffffffffffffffffffffff16815260200160048201548152602001600582015481525050905060018160800151148015610de057503373ffffffffffffffffffffffffffffffffffffffff16610dc760088481548110610db757610db6613c13565b5b9060005260206000200154611303565b73ffffffffffffffffffffffffffffffffffffffff1614155b15610e135780848481518110610df957610df8613c13565b5b60200260200101819052508280610e0f90613c71565b9350505b508080610e1f90613c71565b915050610b0d565b5081935050505090565b600073ffffffffffffffffffffffffffffffffffffffff166006600084815260200190815260200160002060030160009054906101000a900473ffffffffffffffffffffffffffffffffffffffff1673ffffffffffffffffffffffffffffffffffffffff1603610ed6576040517f08c379a0000000000000000000000000000000000000000000000000000000008152600401610ecd90613d05565b60405180910390fd5b3373ffffffffffffffffffffffffffffffffffffffff16610ef683611303565b73ffffffffffffffffffffffffffffffffffffffff1614610f4c576040517f08c379a0000000000000000000000000000000000000000000000000000000008152600401610f4390613d97565b60405180910390fd5b806007600084815260200190815260200160002081905550600160066000848152602001908152602001600020600401819055508060066000848152602001908152602001600020600501819055507f0bafb4ce3ef0c7ae6e11900b314be075a5da984eca40470927333eacb083e69982600183604051610fcf93929190613dfc565b60405180910390a15050565b6060600060088054905067ffffffffffffffff811115610ffe57610ffd61351a565b5b60405190808252806020026020018201604052801561103757816020015b611024612f78565b81526020019060019003908161101c5790505b50905060005b6008805490508110156112d757600660006008838154811061106257611061613c13565b5b906000526020600020015481526020019081526020016000206040518060c001604052908160008201805461109690613a2c565b80601f01602080910402602001604051908101604052809291908181526020018280546110c290613a2c565b801561110f5780601f106110e45761010080835404028352916020019161110f565b820191906000526020600020905b8154815290600101906020018083116110f257829003601f168201915b5050505050815260200160018201805461112890613a2c565b80601f016020809104026020016040519081016040528092919081815260200182805461115490613a2c565b80156111a15780601f10611176576101008083540402835291602001916111a1565b820191906000526020600020905b81548152906001019060200180831161118457829003601f168201915b505050505081526020016002820180546111ba90613a2c565b80601f01602080910402602001604051908101604052809291908181526020018280546111e690613a2c565b80156112335780601f1061120857610100808354040283529160200191611233565b820191906000526020600020905b81548152906001019060200180831161121657829003601f168201915b505050505081526020016003820160009054906101000a900473ffffffffffffffffffffffffffffffffffffffff1673ffffffffffffffffffffffffffffffffffffffff1673ffffffffffffffffffffffffffffffffffffffff168152602001600482015481526020016005820154815250508282815181106112b9576112b8613c13565b5b602002602001018190525080806112cf90613c71565b91505061103d565b508091505090565b600881815481106112ef57600080fd5b906000526020600020016000915090505481565b60008061130f836125fd565b9050600073ffffffffffffffffffffffffffffffffffffffff168173ffffffffffffffffffffffffffffffffffffffff1603611380576040517f08c379a000000000000000000000000000000000000000000000000000000000815260040161137790613e7f565b60405180910390fd5b80915050919050565b600073ffffffffffffffffffffffffffffffffffffffff166006600087815260200190815260200160002060030160009054906101000a900473ffffffffffffffffffffffffffffffffffffffff1673ffffffffffffffffffffffffffffffffffffffff161461142e576040517f08c379a000000000000000000000000000000000000000000000000000000000815260040161142590613eeb565b60405180910390fd5b60006040518060c001604052808681526020018581526020018481526020013373ffffffffffffffffffffffffffffffffffffffff168152602001600081526020018381525090508060066000888152602001908152602001600020600082015181600001908161149f91906140ad565b5060208201518160010190816114b591906140ad565b5060408201518160020190816114cb91906140ad565b5060608201518160030160006101000a81548173ffffffffffffffffffffffffffffffffffffffff021916908373ffffffffffffffffffffffffffffffffffffffff1602179055506080820151816004015560a08201518160050155905050600886908060018154018082558091505060019003906000526020600020016000909190919091505561155d338761263a565b7ff384f9fc0af858cd38086ac63adbde59c0deac73361d450b4a59e08a2c9fc37e868685853360405161159495949392919061417f565b60405180910390a1505050505050565b60008060008060006115b586611deb565b9550955095509550509450600073ffffffffffffffffffffffffffffffffffffffff168273ffffffffffffffffffffffffffffffffffffffff160361162f576040517f08c379a000000000000000000000000000000000000000000000000000000000815260040161162690613d05565b60405180910390fd5b600073ffffffffffffffffffffffffffffffffffffffff163373ffffffffffffffffffffffffffffffffffffffff160361166857600080fd5b8173ffffffffffffffffffffffffffffffffffffffff163373ffffffffffffffffffffffffffffffffffffffff16036116d6576040517f08c379a00000000000000000000000000000000000000000000000000000000081526004016116cd9061422c565b60405180910390fd5b80341015611719576040517f08c379a000000000000000000000000000000000000000000000000000000000815260040161171090614298565b60405180910390fd5b6000830361175c576040517f08c379a000000000000000000000000000000000000000000000000000000000815260040161175390614304565b60405180910390fd5b6117678233886121ae565b803411156117ca5761177833612857565b73ffffffffffffffffffffffffffffffffffffffff166108fc823461179d9190614324565b9081150290604051600060405180830381858888f193505050501580156117c8573d6000803e3d6000fd5b505b6117d382612857565b73ffffffffffffffffffffffffffffffffffffffff166108fc829081150290604051600060405180830381858888f19350505050158015611818573d6000803e3d6000fd5b50336006600088815260200190815260200160002060030160006101000a81548173ffffffffffffffffffffffffffffffffffffffff021916908373ffffffffffffffffffffffffffffffffffffffff160217905550600060066000888152602001908152602001600020600401819055507f50f19f1511ed404f1364053939e843062c2b3e9f58f9ac0c61c733a96e18f8748686868486336040516118c396959493929190614358565b60405180910390a1505050505050565b60008073ffffffffffffffffffffffffffffffffffffffff168273ffffffffffffffffffffffffffffffffffffffff1603611943576040517f08c379a000000000000000000000000000000000000000000000000000000000815260040161193a90614439565b60405180910390fd5b600360008373ffffffffffffffffffffffffffffffffffffffff1673ffffffffffffffffffffffffffffffffffffffff168152602001908152602001600020549050919050565b60066020528060005260406000206000915090508060000180546119ad90613a2c565b80601f01602080910402602001604051908101604052809291908181526020018280546119d990613a2c565b8015611a265780601f106119fb57610100808354040283529160200191611a26565b820191906000526020600020905b815481529060010190602001808311611a0957829003601f168201915b505050505090806001018054611a3b90613a2c565b80601f0160208091040260200160405190810160405280929190818152602001828054611a6790613a2c565b8015611ab45780601f10611a8957610100808354040283529160200191611ab4565b820191906000526020600020905b815481529060010190602001808311611a9757829003601f168201915b505050505090806002018054611ac990613a2c565b80601f0160208091040260200160405190810160405280929190818152602001828054611af590613a2c565b8015611b425780601f10611b1757610100808354040283529160200191611b42565b820191906000526020600020905b815481529060010190602001808311611b2557829003601f168201915b5050505050908060030160009054906101000a900473ffffffffffffffffffffffffffffffffffffffff16908060040154908060050154905086565b60076020528060005260406000206000915090505481565b3373ffffffffffffffffffffffffffffffffffffffff16611bb682611303565b73ffffffffffffffffffffffffffffffffffffffff1614611bd657600080fd5b611be13383836121ae565b5050565b606060018054611bf490613a2c565b80601f0160208091040260200160405190810160405280929190818152602001828054611c2090613a2c565b8015611c6d5780601f10611c4257610100808354040283529160200191611c6d565b820191906000526020600020905b815481529060010190602001808311611c5057829003601f168201915b5050505050905090565b611c89611c826124a7565b8383612861565b5050565b611c9e611c986124a7565b83612568565b611cdd576040517f08c379a0000000000000000000000000000000000000000000000000000000008152600401611cd490613bf3565b60405180910390fd5b611ce9848484846129cd565b50505050565b6060611cfa82612163565b6000611d04612a29565b90506000815111611d245760405180602001604052806000815250611d4f565b80611d2e84612a40565b604051602001611d3f929190614495565b6040516020818303038152906040525b915050919050565b6000600560008473ffffffffffffffffffffffffffffffffffffffff1673ffffffffffffffffffffffffffffffffffffffff16815260200190815260200160002060008373ffffffffffffffffffffffffffffffffffffffff1673ffffffffffffffffffffffffffffffffffffffff16815260200190815260200160002060009054906101000a900460ff16905092915050565b606080606060008060008073ffffffffffffffffffffffffffffffffffffffff166006600089815260200190815260200160002060030160009054906101000a900473ffffffffffffffffffffffffffffffffffffffff1673ffffffffffffffffffffffffffffffffffffffff1603611e99576040517f08c379a0000000000000000000000000000000000000000000000000000000008152600401611e9090613d05565b60405180910390fd5b6006600088815260200190815260200160002060000160066000898152602001908152602001600020600101600660008a8152602001908152602001600020600201600660008b815260200190815260200160002060040154600660008c815260200190815260200160002060030160009054906101000a900473ffffffffffffffffffffffffffffffffffffffff16600660008d815260200190815260200160002060050154858054611f4c90613a2c565b80601f0160208091040260200160405190810160405280929190818152602001828054611f7890613a2c565b8015611fc55780601f10611f9a57610100808354040283529160200191611fc5565b820191906000526020600020905b815481529060010190602001808311611fa857829003601f168201915b50505050509550848054611fd890613a2c565b80601f016020809104026020016040519081016040528092919081815260200182805461200490613a2c565b80156120515780601f1061202657610100808354040283529160200191612051565b820191906000526020600020905b81548152906001019060200180831161203457829003601f168201915b5050505050945083805461206490613a2c565b80601f016020809104026020016040519081016040528092919081815260200182805461209090613a2c565b80156120dd5780601f106120b2576101008083540402835291602001916120dd565b820191906000526020600020905b8154815290600101906020018083116120c057829003601f168201915b5050505050935095509550955095509550955091939550919395565b60007f01ffc9a7000000000000000000000000000000000000000000000000000000007bffffffffffffffffffffffffffffffffffffffffffffffffffffffff1916827bffffffffffffffffffffffffffffffffffffffffffffffffffffffff1916149050919050565b61216c81612b0e565b6121ab576040517f08c379a00000000000000000000000000000000000000000000000000000000081526004016121a290613e7f565b60405180910390fd5b50565b8273ffffffffffffffffffffffffffffffffffffffff166121ce82611303565b73ffffffffffffffffffffffffffffffffffffffff1614612224576040517f08c379a000000000000000000000000000000000000000000000000000000000815260040161221b9061452b565b60405180910390fd5b600073ffffffffffffffffffffffffffffffffffffffff168273ffffffffffffffffffffffffffffffffffffffff1603612293576040517f08c379a000000000000000000000000000000000000000000000000000000000815260040161228a906145bd565b60405180910390fd5b6122a08383836001612b4f565b8273ffffffffffffffffffffffffffffffffffffffff166122c082611303565b73ffffffffffffffffffffffffffffffffffffffff1614612316576040517f08c379a000000000000000000000000000000000000000000000000000000000815260040161230d9061452b565b60405180910390fd5b6004600082815260200190815260200160002060006101000a81549073ffffffffffffffffffffffffffffffffffffffff02191690556001600360008573ffffffffffffffffffffffffffffffffffffffff1673ffffffffffffffffffffffffffffffffffffffff168152602001908152602001600020600082825403925050819055506001600360008473ffffffffffffffffffffffffffffffffffffffff1673ffffffffffffffffffffffffffffffffffffffff16815260200190815260200160002060008282540192505081905550816002600083815260200190815260200160002060006101000a81548173ffffffffffffffffffffffffffffffffffffffff021916908373ffffffffffffffffffffffffffffffffffffffff160217905550808273ffffffffffffffffffffffffffffffffffffffff168473ffffffffffffffffffffffffffffffffffffffff167fddf252ad1be2c89b69c2b068fc378daa952ba7f163c4a11628f55a4df523b3ef60405160405180910390a46124a28383836001612c75565b505050565b600033905090565b816004600083815260200190815260200160002060006101000a81548173ffffffffffffffffffffffffffffffffffffffff021916908373ffffffffffffffffffffffffffffffffffffffff160217905550808273ffffffffffffffffffffffffffffffffffffffff1661252283611303565b73ffffffffffffffffffffffffffffffffffffffff167f8c5be1e5ebec7d5bd14f71427d1e84f3dd0314c0f7b2291e5b200ac8c7c3b92560405160405180910390a45050565b60008061257483611303565b90508073ffffffffffffffffffffffffffffffffffffffff168473ffffffffffffffffffffffffffffffffffffffff1614806125b657506125b58185611d57565b5b806125f457508373ffffffffffffffffffffffffffffffffffffffff166125dc8461074f565b73ffffffffffffffffffffffffffffffffffffffff16145b91505092915050565b60006002600083815260200190815260200160002060009054906101000a900473ffffffffffffffffffffffffffffffffffffffff169050919050565b600073ffffffffffffffffffffffffffffffffffffffff168273ffffffffffffffffffffffffffffffffffffffff16036126a9576040517f08c379a00000000000000000000000000000000000000000000000000000000081526004016126a090614629565b60405180910390fd5b6126b281612b0e565b156126f2576040517f08c379a00000000000000000000000000000000000000000000000000000000081526004016126e990614695565b60405180910390fd5b612700600083836001612b4f565b61270981612b0e565b15612749576040517f08c379a000000000000000000000000000000000000000000000000000000000815260040161274090614695565b60405180910390fd5b6001600360008473ffffffffffffffffffffffffffffffffffffffff1673ffffffffffffffffffffffffffffffffffffffff16815260200190815260200160002060008282540192505081905550816002600083815260200190815260200160002060006101000a81548173ffffffffffffffffffffffffffffffffffffffff021916908373ffffffffffffffffffffffffffffffffffffffff160217905550808273ffffffffffffffffffffffffffffffffffffffff16600073ffffffffffffffffffffffffffffffffffffffff167fddf252ad1be2c89b69c2b068fc378daa952ba7f163c4a11628f55a4df523b3ef60405160405180910390a4612853600083836001612c75565b5050565b6000819050919050565b8173ffffffffffffffffffffffffffffffffffffffff168373ffffffffffffffffffffffffffffffffffffffff16036128cf576040517f08c379a00000000000000000000000000000000000000000000000000000000081526004016128c690614701565b60405180910390fd5b80600560008573ffffffffffffffffffffffffffffffffffffffff1673ffffffffffffffffffffffffffffffffffffffff16815260200190815260200160002060008473ffffffffffffffffffffffffffffffffffffffff1673ffffffffffffffffffffffffffffffffffffffff16815260200190815260200160002060006101000a81548160ff0219169083151502179055508173ffffffffffffffffffffffffffffffffffffffff168373ffffffffffffffffffffffffffffffffffffffff167f17307eab39ab6107e8899845ad3d59bd9653f200f220920489ca2b5937696c31836040516129c09190613078565b60405180910390a3505050565b6129d88484846121ae565b6129e484848484612c7b565b612a23576040517f08c379a0000000000000000000000000000000000000000000000000000000008152600401612a1a90614793565b60405180910390fd5b50505050565b606060405180602001604052806000815250905090565b606060006001612a4f84612e02565b01905060008167ffffffffffffffff811115612a6e57612a6d61351a565b5b6040519080825280601f01601f191660200182016040528015612aa05781602001600182028036833780820191505090505b509050600082602001820190505b600115612b03578080600190039150507f3031323334353637383961626364656600000000000000000000000000000000600a86061a8153600a8581612af757612af66147b3565b5b04945060008503612aae575b819350505050919050565b60008073ffffffffffffffffffffffffffffffffffffffff16612b30836125fd565b73ffffffffffffffffffffffffffffffffffffffff1614159050919050565b6001811115612c6f57600073ffffffffffffffffffffffffffffffffffffffff168473ffffffffffffffffffffffffffffffffffffffff1614612be35780600360008673ffffffffffffffffffffffffffffffffffffffff1673ffffffffffffffffffffffffffffffffffffffff1681526020019081526020016000206000828254612bdb9190614324565b925050819055505b600073ffffffffffffffffffffffffffffffffffffffff168373ffffffffffffffffffffffffffffffffffffffff1614612c6e5780600360008573ffffffffffffffffffffffffffffffffffffffff1673ffffffffffffffffffffffffffffffffffffffff1681526020019081526020016000206000828254612c6691906147e2565b925050819055505b5b50505050565b50505050565b6000612c9c8473ffffffffffffffffffffffffffffffffffffffff16612f55565b15612df5578373ffffffffffffffffffffffffffffffffffffffff1663150b7a02612cc56124a7565b8786866040518563ffffffff1660e01b8152600401612ce7949392919061486b565b6020604051808303816000875af1925050508015612d2357506040513d601f19601f82011682018060405250810190612d2091906148cc565b60015b612da5573d8060008114612d53576040519150601f19603f3d011682016040523d82523d6000602084013e612d58565b606091505b506000815103612d9d576040517f08c379a0000000000000000000000000000000000000000000000000000000008152600401612d9490614793565b60405180910390fd5b805181602001fd5b63150b7a0260e01b7bffffffffffffffffffffffffffffffffffffffffffffffffffffffff1916817bffffffffffffffffffffffffffffffffffffffffffffffffffffffff191614915050612dfa565b600190505b949350505050565b600080600090507a184f03e93ff9f4daa797ed6e38ed64bf6a1f0100000000000000008310612e60577a184f03e93ff9f4daa797ed6e38ed64bf6a1f0100000000000000008381612e5657612e556147b3565b5b0492506040810190505b6d04ee2d6d415b85acef81000000008310612e9d576d04ee2d6d415b85acef81000000008381612e9357612e926147b3565b5b0492506020810190505b662386f26fc100008310612ecc57662386f26fc100008381612ec257612ec16147b3565b5b0492506010810190505b6305f5e1008310612ef5576305f5e1008381612eeb57612eea6147b3565b5b0492506008810190505b6127108310612f1a576127108381612f1057612f0f6147b3565b5b0492506004810190505b60648310612f3d5760648381612f3357612f326147b3565b5b0492506002810190505b600a8310612f4c576001810190505b80915050919050565b6000808273ffffffffffffffffffffffffffffffffffffffff163b119050919050565b6040518060c00160405280606081526020016060815260200160608152602001600073ffffffffffffffffffffffffffffffffffffffff16815260200160008152602001600081525090565b6000604051905090565b600080fd5b600080fd5b60007fffffffff0000000000000000000000000000000000000000000000000000000082169050919050565b61300d81612fd8565b811461301857600080fd5b50565b60008135905061302a81613004565b92915050565b60006020828403121561304657613045612fce565b5b60006130548482850161301b565b91505092915050565b60008115159050919050565b6130728161305d565b82525050565b600060208201905061308d6000830184613069565b92915050565b600081519050919050565b600082825260208201905092915050565b60005b838110156130cd5780820151818401526020810190506130b2565b60008484015250505050565b6000601f19601f8301169050919050565b60006130f582613093565b6130ff818561309e565b935061310f8185602086016130af565b613118816130d9565b840191505092915050565b6000602082019050818103600083015261313d81846130ea565b905092915050565b6000819050919050565b61315881613145565b811461316357600080fd5b50565b6000813590506131758161314f565b92915050565b60006020828403121561319157613190612fce565b5b600061319f84828501613166565b91505092915050565b600073ffffffffffffffffffffffffffffffffffffffff82169050919050565b60006131d3826131a8565b9050919050565b6131e3816131c8565b82525050565b60006020820190506131fe60008301846131da565b92915050565b6000806040838503121561321b5761321a612fce565b5b600061322985828601613166565b925050602061323a85828601613166565b9150509250929050565b61324d816131c8565b811461325857600080fd5b50565b60008135905061326a81613244565b92915050565b6000806040838503121561328757613286612fce565b5b60006132958582860161325b565b92505060206132a685828601613166565b9150509250929050565b6000806000606084860312156132c9576132c8612fce565b5b60006132d78682870161325b565b93505060206132e88682870161325b565b92505060406132f986828701613166565b9150509250925092565b600081519050919050565b600082825260208201905092915050565b6000819050602082019050919050565b600082825260208201905092915050565b600061334b82613093565b613355818561332f565b93506133658185602086016130af565b61336e816130d9565b840191505092915050565b613382816131c8565b82525050565b61339181613145565b82525050565b600060c08301600083015184820360008601526133b48282613340565b915050602083015184820360208601526133ce8282613340565b915050604083015184820360408601526133e88282613340565b91505060608301516133fd6060860182613379565b5060808301516134106080860182613388565b5060a083015161342360a0860182613388565b508091505092915050565b600061343a8383613397565b905092915050565b6000602082019050919050565b600061345a82613303565b613464818561330e565b9350836020820285016134768561331f565b8060005b858110156134b25784840389528151613493858261342e565b945061349e83613442565b925060208a0199505060018101905061347a565b50829750879550505050505092915050565b600060208201905081810360008301526134de818461344f565b905092915050565b6134ef81613145565b82525050565b600060208201905061350a60008301846134e6565b92915050565b600080fd5b600080fd5b7f4e487b7100000000000000000000000000000000000000000000000000000000600052604160045260246000fd5b613552826130d9565b810181811067ffffffffffffffff821117156135715761357061351a565b5b80604052505050565b6000613584612fc4565b90506135908282613549565b919050565b600067ffffffffffffffff8211156135b0576135af61351a565b5b6135b9826130d9565b9050602081019050919050565b82818337600083830152505050565b60006135e86135e384613595565b61357a565b90508281526020810184848401111561360457613603613515565b5b61360f8482856135c6565b509392505050565b600082601f83011261362c5761362b613510565b5b813561363c8482602086016135d5565b91505092915050565b600080600080600060a0868803121561366157613660612fce565b5b600061366f88828901613166565b955050602086013567ffffffffffffffff8111156136905761368f612fd3565b5b61369c88828901613617565b945050604086013567ffffffffffffffff8111156136bd576136bc612fd3565b5b6136c988828901613617565b935050606086013567ffffffffffffffff8111156136ea576136e9612fd3565b5b6136f688828901613617565b925050608061370788828901613166565b9150509295509295909350565b60006020828403121561372a57613729612fce565b5b60006137388482850161325b565b91505092915050565b600060c082019050818103600083015261375b81896130ea565b9050818103602083015261376f81886130ea565b9050818103604083015261378381876130ea565b905061379260608301866131da565b61379f60808301856134e6565b6137ac60a08301846134e6565b979650505050505050565b6137c08161305d565b81146137cb57600080fd5b50565b6000813590506137dd816137b7565b92915050565b600080604083850312156137fa576137f9612fce565b5b60006138088582860161325b565b9250506020613819858286016137ce565b9150509250929050565b600067ffffffffffffffff82111561383e5761383d61351a565b5b613847826130d9565b9050602081019050919050565b600061386761386284613823565b61357a565b90508281526020810184848401111561388357613882613515565b5b61388e8482856135c6565b509392505050565b600082601f8301126138ab576138aa613510565b5b81356138bb848260208601613854565b91505092915050565b600080600080608085870312156138de576138dd612fce565b5b60006138ec8782880161325b565b94505060206138fd8782880161325b565b935050604061390e87828801613166565b925050606085013567ffffffffffffffff81111561392f5761392e612fd3565b5b61393b87828801613896565b91505092959194509250565b6000806040838503121561395e5761395d612fce565b5b600061396c8582860161325b565b925050602061397d8582860161325b565b9150509250929050565b600060c08201905081810360008301526139a181896130ea565b905081810360208301526139b581886130ea565b905081810360408301526139c981876130ea565b90506139d860608301866134e6565b6139e560808301856131da565b6139f260a08301846134e6565b979650505050505050565b7f4e487b7100000000000000000000000000000000000000000000000000000000600052602260045260246000fd5b60006002820490506001821680613a4457607f821691505b602082108103613a5757613a566139fd565b5b50919050565b7f4552433732313a20617070726f76616c20746f2063757272656e74206f776e6560008201527f7200000000000000000000000000000000000000000000000000000000000000602082015250565b6000613ab960218361309e565b9150613ac482613a5d565b604082019050919050565b60006020820190508181036000830152613ae881613aac565b9050919050565b7f4552433732313a20617070726f76652063616c6c6572206973206e6f7420746f60008201527f6b656e206f776e6572206f7220617070726f76656420666f7220616c6c000000602082015250565b6000613b4b603d8361309e565b9150613b5682613aef565b604082019050919050565b60006020820190508181036000830152613b7a81613b3e565b9050919050565b7f4552433732313a2063616c6c6572206973206e6f7420746f6b656e206f776e6560008201527f72206f7220617070726f76656400000000000000000000000000000000000000602082015250565b6000613bdd602d8361309e565b9150613be882613b81565b604082019050919050565b60006020820190508181036000830152613c0c81613bd0565b9050919050565b7f4e487b7100000000000000000000000000000000000000000000000000000000600052603260045260246000fd5b7f4e487b7100000000000000000000000000000000000000000000000000000000600052601160045260246000fd5b6000613c7c82613145565b91507fffffffffffffffffffffffffffffffffffffffffffffffffffffffffffffffff8203613cae57613cad613c42565b5b600182019050919050565b7f426f6f6b20646f6573206e6f7420657869737400000000000000000000000000600082015250565b6000613cef60138361309e565b9150613cfa82613cb9565b602082019050919050565b60006020820190508181036000830152613d1e81613ce2565b9050919050565b7f596f752063616e27742073616c6520626f6f6b20796f7520646f6e2774206f7760008201527f6e65640000000000000000000000000000000000000000000000000000000000602082015250565b6000613d8160238361309e565b9150613d8c82613d25565b604082019050919050565b60006020820190508181036000830152613db081613d74565b9050919050565b6000819050919050565b6000819050919050565b6000613de6613de1613ddc84613db7565b613dc1565b613145565b9050919050565b613df681613dcb565b82525050565b6000606082019050613e1160008301866134e6565b613e1e6020830185613ded565b613e2b60408301846134e6565b949350505050565b7f4552433732313a20696e76616c696420746f6b656e2049440000000000000000600082015250565b6000613e6960188361309e565b9150613e7482613e33565b602082019050919050565b60006020820190508181036000830152613e9881613e5c565b9050919050565b7f426f6f6b20657869737473000000000000000000000000000000000000000000600082015250565b6000613ed5600b8361309e565b9150613ee082613e9f565b602082019050919050565b60006020820190508181036000830152613f0481613ec8565b9050919050565b60008190508160005260206000209050919050565b60006020601f8301049050919050565b600082821b905092915050565b600060088302613f6d7fffffffffffffffffffffffffffffffffffffffffffffffffffffffffffffffff82613f30565b613f778683613f30565b95508019841693508086168417925050509392505050565b6000613faa613fa5613fa084613145565b613dc1565b613145565b9050919050565b6000819050919050565b613fc483613f8f565b613fd8613fd082613fb1565b848454613f3d565b825550505050565b600090565b613fed613fe0565b613ff8818484613fbb565b505050565b5b8181101561401c57614011600082613fe5565b600181019050613ffe565b5050565b601f8211156140615761403281613f0b565b61403b84613f20565b8101602085101561404a578190505b61405e61405685613f20565b830182613ffd565b50505b505050565b600082821c905092915050565b600061408460001984600802614066565b1980831691505092915050565b600061409d8383614073565b9150826002028217905092915050565b6140b682613093565b67ffffffffffffffff8111156140cf576140ce61351a565b5b6140d98254613a2c565b6140e4828285614020565b600060209050601f8311600181146141175760008415614105578287015190505b61410f8582614091565b865550614177565b601f19841661412586613f0b565b60005b8281101561414d57848901518255600182019150602085019450602081019050614128565b8683101561416a5784890151614166601f891682614073565b8355505b6001600288020188555050505b505050505050565b600060a08201905061419460008301886134e6565b81810360208301526141a681876130ea565b905081810360408301526141ba81866130ea565b90506141c960608301856134e6565b6141d660808301846131da565b9695505050505050565b7f4d6573736167652073656e64657220697320616c7265616479206f776e657200600082015250565b6000614216601f8361309e565b9150614221826141e0565b602082019050919050565b6000602082019050818103600083015261424581614209565b9050919050565b7f4d6573736167652076616c756520697320746f6f206c6f770000000000000000600082015250565b600061428260188361309e565b915061428d8261424c565b602082019050919050565b600060208201905081810360008301526142b181614275565b9050919050565b7f426f6f6b206973206e6f7420666f722073616c65000000000000000000000000600082015250565b60006142ee60148361309e565b91506142f9826142b8565b602082019050919050565b6000602082019050818103600083015261431d816142e1565b9050919050565b600061432f82613145565b915061433a83613145565b925082820390508181111561435257614351613c42565b5b92915050565b600060c08201905061436d60008301896134e6565b818103602083015261437f81886130ea565b9050818103604083015261439381876130ea565b90506143a260608301866134e6565b6143af60808301856131da565b6143bc60a08301846131da565b979650505050505050565b7f4552433732313a2061646472657373207a65726f206973206e6f74206120766160008201527f6c6964206f776e65720000000000000000000000000000000000000000000000602082015250565b600061442360298361309e565b915061442e826143c7565b604082019050919050565b6000602082019050818103600083015261445281614416565b9050919050565b600081905092915050565b600061446f82613093565b6144798185614459565b93506144898185602086016130af565b80840191505092915050565b60006144a18285614464565b91506144ad8284614464565b91508190509392505050565b7f4552433732313a207472616e736665722066726f6d20696e636f72726563742060008201527f6f776e6572000000000000000000000000000000000000000000000000000000602082015250565b600061451560258361309e565b9150614520826144b9565b604082019050919050565b6000602082019050818103600083015261454481614508565b9050919050565b7f4552433732313a207472616e7366657220746f20746865207a65726f2061646460008201527f7265737300000000000000000000000000000000000000000000000000000000602082015250565b60006145a760248361309e565b91506145b28261454b565b604082019050919050565b600060208201905081810360008301526145d68161459a565b9050919050565b7f4552433732313a206d696e7420746f20746865207a65726f2061646472657373600082015250565b600061461360208361309e565b915061461e826145dd565b602082019050919050565b6000602082019050818103600083015261464281614606565b9050919050565b7f4552433732313a20746f6b656e20616c7265616479206d696e74656400000000600082015250565b600061467f601c8361309e565b915061468a82614649565b602082019050919050565b600060208201905081810360008301526146ae81614672565b9050919050565b7f4552433732313a20617070726f766520746f2063616c6c657200000000000000600082015250565b60006146eb60198361309e565b91506146f6826146b5565b602082019050919050565b6000602082019050818103600083015261471a816146de565b9050919050565b7f4552433732313a207472616e7366657220746f206e6f6e20455243373231526560008201527f63656976657220696d706c656d656e7465720000000000000000000000000000602082015250565b600061477d60328361309e565b915061478882614721565b604082019050919050565b600060208201905081810360008301526147ac81614770565b9050919050565b7f4e487b7100000000000000000000000000000000000000000000000000000000600052601260045260246000fd5b60006147ed82613145565b91506147f883613145565b92508282019050808211156148105761480f613c42565b5b92915050565b600081519050919050565b600082825260208201905092915050565b600061483d82614816565b6148478185614821565b93506148578185602086016130af565b614860816130d9565b840191505092915050565b600060808201905061488060008301876131da565b61488d60208301866131da565b61489a60408301856134e6565b81810360608301526148ac8184614832565b905095945050505050565b6000815190506148c681613004565b92915050565b6000602082840312156148e2576148e1612fce565b5b60006148f0848285016148b7565b9150509291505056fea2646970667358221220db77b7ce36ca70c466383a8bfd52bbf321298ad1b3c643721c691a567d3356ab64736f6c63430008110033",
  "immutableReferences": {},
  "source": "pragma solidity ^0.8.4;\n\nimport \"@openzeppelin/contracts/token/ERC721/ERC721.sol\";\n\ncontract BookToken is ERC721 {\n    constructor() ERC721(\"BookToken\", \"BK\") {}\n\n    struct Book {\n        string title;\n        string description;\n        string authorName;\n        address owner;\n        uint status;\n        uint256 price;\n    }\n\n    mapping(uint256 => Book) public tokenIdToBookInfo;\n    mapping(uint256 => uint256) public booksForSale;\n    uint256[] public allTokens;\n\n    event LogBookSold(uint _tokenId, string _title, string _authorName,\n        uint256 _price, address _current_owner, address _buyer);\n\n    event LogBookTokenCreate(uint _tokenId, string _title, string _authorName,\n        uint256 price, address _owner);\n\n    event LogBookPutUpForSale(uint _tokenId, uint _status, uint256 _price);\n\n    function createBookToken(uint256 _tokenId, string memory _title, string memory _description,\n        string memory _authorName, uint256 _price) public {\n\n        require(tokenIdToBookInfo[_tokenId].owner == address(0x0), \"Book exists\");\n\n        Book memory newBook = Book(_title, _description, _authorName, msg.sender, 0, _price);\n        tokenIdToBookInfo[_tokenId] = newBook;\n        allTokens.push(_tokenId);\n        _mint(msg.sender, _tokenId);\n        emit LogBookTokenCreate(_tokenId, _title, _authorName, _price, msg.sender);\n    }\n\n    function lookUpForBook (uint256 _tokenId) public view returns\n         (string memory, string memory, string memory, uint status, address, uint256){\n\n        require(tokenIdToBookInfo[_tokenId].owner != address(0x0), \"Book does not exist\");\n\n        return (tokenIdToBookInfo[_tokenId].title, tokenIdToBookInfo[_tokenId].description,\n        tokenIdToBookInfo[_tokenId].authorName, tokenIdToBookInfo[_tokenId].status,\n        tokenIdToBookInfo[_tokenId].owner, tokenIdToBookInfo[_tokenId].price);\n    }\n\n    function putBookUpForSale(uint256 _tokenId, uint256 _price) public {\n        require(tokenIdToBookInfo[_tokenId].owner != address(0x0), \"Book does not exist\");\n        require(ownerOf(_tokenId) == msg.sender, \"You can't sale book you don't owned\");\n        booksForSale[_tokenId] = _price;\n        tokenIdToBookInfo[_tokenId].status = 1;\n        tokenIdToBookInfo[_tokenId].price = _price;\n        emit LogBookPutUpForSale(_tokenId, 1, _price);\n    }\n\n    function buyBook(uint256 _tokenId) payable public {\n        (string memory _title,, string memory _authorName, uint status,\n        address _current_owner, uint256 _price) =  lookUpForBook(_tokenId);\n\n        require(_current_owner != address(0x0), \"Book does not exist\");\n        require(msg.sender != address(0x0));\n        require(msg.sender != _current_owner, \"Message sender is already owner\");\n        require(msg.value >= _price, \"Message value is too low\");\n        require(status != 0, \"Book is not for sale\");\n\n        //transfer ownership of book\n        _transfer(_current_owner, msg.sender, _tokenId);\n        //return extra payment\n        if(msg.value > _price) _make_payable(msg.sender).transfer(msg.value - _price);\n        //make a payment\n        _make_payable(_current_owner).transfer(_price);\n        tokenIdToBookInfo[_tokenId].owner = msg.sender;\n        tokenIdToBookInfo[_tokenId].status = 0;\n\n        emit LogBookSold(_tokenId, _title, _authorName, _price, _current_owner, msg.sender);\n    }\n\n    // Function that allows you to convert an address into a payable address\n    function _make_payable(address x) internal pure returns (address payable) {\n        return payable(address(uint160(x)));\n    }\n\n    function exchangeBooks (uint256 _firstBookTokenId, uint256 _secondBookTokenId) public payable{\n        require(ownerOf(_firstBookTokenId)==msg.sender || ownerOf(_secondBookTokenId)==msg.sender);\n\n        address bookOwner1 = ownerOf(_firstBookTokenId);\n        address bookOwner2 = ownerOf(_secondBookTokenId);\n        // Exchange the tokens.\n        _transfer(bookOwner1, bookOwner2, _firstBookTokenId);\n        _transfer(bookOwner2, bookOwner1, _secondBookTokenId);\n    }\n\n    function transferBook (address to, uint256 _tokenId) public payable{\n        require(ownerOf(_tokenId)==msg.sender);\n        _transfer(msg.sender, to, _tokenId);\n    }\n\n    function getAllWithStatusAvailableForSale () public view returns (Book[] memory){\n        //check how many tokens\n        uint256 tokensForSale = 0;\n        for (uint i = 0; i < allTokens.length; i++) {\n            //is for sale and sender is not a owner of a token\n            if(tokenIdToBookInfo[allTokens[i]].status==1 && ownerOf(allTokens[i])!=msg.sender){\n                tokensForSale++;\n            }\n        }\n        //create list of available tokens\n        Book[] memory tokens = new Book[](tokensForSale);\n        uint256 index = 0;\n        for (uint i = 0; i < allTokens.length; i++) {\n            //is for sale and sender is not a owner of a token\n            Book memory newBook = tokenIdToBookInfo[allTokens[i]];\n            if(newBook.status==1 && ownerOf(allTokens[i])!=msg.sender){\n                tokens[index] = newBook;\n                index++;\n            }\n        }\n        return tokens;\n    }\n\n    function getAll () public view returns (Book[] memory){\n\n        Book[] memory tokens = new Book[](allTokens.length);\n        for (uint i = 0; i < allTokens.length; i++) {\n          tokens[i] = tokenIdToBookInfo[allTokens[i]];\n        }\n        return tokens;\n    }\n}\n",
  "sourcePath": "/home/joanna/myprojects/booktokenNFT/contracts/BookToken.sol",
  "compiler": {
    "name": "solc",
    "version": "0.8.17+commit.8df45f5f.Emscripten.clang"
  },
  "schemaVersion": "3.4.10",
  "updatedAt": "2022-12-22T13:27:38.059Z",
  "networkType": "ethereum",
  "devdoc": {
    "kind": "dev",
    "methods": {
      "approve(address,uint256)": {
        "details": "See {IERC721-approve}."
      },
      "balanceOf(address)": {
        "details": "See {IERC721-balanceOf}."
      },
      "getApproved(uint256)": {
        "details": "See {IERC721-getApproved}."
      },
      "isApprovedForAll(address,address)": {
        "details": "See {IERC721-isApprovedForAll}."
      },
      "name()": {
        "details": "See {IERC721Metadata-name}."
      },
      "ownerOf(uint256)": {
        "details": "See {IERC721-ownerOf}."
      },
      "safeTransferFrom(address,address,uint256)": {
        "details": "See {IERC721-safeTransferFrom}."
      },
      "safeTransferFrom(address,address,uint256,bytes)": {
        "details": "See {IERC721-safeTransferFrom}."
      },
      "setApprovalForAll(address,bool)": {
        "details": "See {IERC721-setApprovalForAll}."
      },
      "supportsInterface(bytes4)": {
        "details": "See {IERC165-supportsInterface}."
      },
      "symbol()": {
        "details": "See {IERC721Metadata-symbol}."
      },
      "tokenURI(uint256)": {
        "details": "See {IERC721Metadata-tokenURI}."
      },
      "transferFrom(address,address,uint256)": {
        "details": "See {IERC721-transferFrom}."
      }
    },
    "version": 1
  },
  "userdoc": {
    "kind": "user",
    "methods": {},
    "version": 1
  }
}